:100000000C943B010C946C010C946C010C946C01ED
:100010000C946C010C946C010C946C010C946C01AC
:100020000C946C010C946C010C946C010C946C019C
:100030000C946C010C946C010C946C010C946C018C
:100040000C946C010C946C010C946C010C946C017C
:100050000C946C010C946C010C946C010C944F0486
:100060000C946C010C94C3040C9499040C946C01D2
:100070000C946C010C946C010C946C010C946C014C
:100080000C946C010C946C010C946C010C946C013C
:100090000C946C010C946C010C946C010C94F9059B
:1000A0000C946C010C946C010C946C010C946C011C
:1000B0000C946C010C946C010C946C010C946C010C
:1000C0000C946C010C946C010C946C010C946C01FC
:1000D0000C946C010C946C010C946C010C946C01EC
:1000E0000C946C01E103E403D303D703DB031B048B
:1000F000E803EC03F203F603FA0300040404080423
:100100001B040E04120416040C9448020C940E04F2
:100110000C942C050C94D3030C94EC030C94CA019E
:100120000C94A8010C94B7050C94E4030C94F6030A
:100130000C94FA030C941B040C94BC010C94E8037B
:100140000C9457050C942B050C94E1030C94990125
:100150000C9400040C94F2030C9487050C9408048E
:100160000C94D7030C9412040C94DD080C94010237
:100170000C94DB030C943B050C946E010C94160458
:100180000C944F050C940404000022002500280064
:100190002B002E003100340002010000050108018F
:1001A0000B010505050507050808080802020202FB
:1001B0000A0A080804040404010101010101010103
:1001C0000303030303030303040707070C0C0C0CCE
:1001D0000C0C0C0C020202020606060606060606B7
:1001E0000B0B0B0B0B0B0B0B010210202008081044
:1001F0002040102040800201020108040201010297
:10020000040810204080804020100804020180046F
:1002100002018040201008040201080402010102CA
:1002200004081020408001020408102040800000D3
:100230000A0B02090C0D0E08070304010000000060
:1002400000000000000000000000000000000000AE
:10025000000000000000000000001211100000006B
:10026000000000000000000000000000000000008E
:1002700000000000DD0811241FBECFEFD1E2DEBF79
:10028000CDBF00E00CBF12E0A0E0B2E0E8EDF6E187
:1002900000E00BBF02C007900D92A436B107D9F75A
:1002A00023E0A4E6B2E001C01D92A63DB207E1F74B
:1002B00011E0CBE3D1E000E006C021970109802FD7
:1002C000FE010E94300ACA33D10780E00807A9F76F
:1002D0000E9416090C946A0B0C940000CF92DF92D6
:1002E000EF92FF920F931F93CF93DF936C017A01EC
:1002F0008B01C0E0D0E0CE15DF0589F0D8016D910B
:100300008D01D601ED91FC910190F081E02DC601A7
:100310001995892B11F47E0102C02196ECCFC701FB
:10032000DF91CF911F910F91FF90EF90DF90CF90D1
:100330000895FC01538D448D252F30E0842F90E0EB
:10034000821B930B541710F0CF96089501970895D0
:10035000FC01918D828D981761F0828DDF01A80FCD
:10036000B11D5D968C91928D9F5F9F73928F90E0EF
:1003700008958FEF9FEF0895FC01918D828D98175E
:1003800031F0828DE80FF11D858D90E008958FEF9B
:100390009FEF0895FC01918D228D892F90E0805C64
:1003A0009F4F821B91098F73992708958FEA92E0DE
:1003B0000E94CA0121E0892B09F420E0822F0895D0
:1003C000FC01848DDF01A80FB11DA35ABF4F2C91F2
:1003D000848D90E001968F739927848FA689B789C1
:1003E0002C93A089B1898C9180648C93938D848D9A
:1003F000981306C00288F389E02D80818F7D808369
:100400000895EF92FF920F931F93CF93DF93EC0128
:1004100081E0888F9B8D8C8D981305C0E889F989C0
:10042000808185FD24C0F62E0B8D10E00F5F1F4FDD
:100430000F731127E02E8C8DE8120CC00FB607FC4D
:10044000FACFE889F989808185FFF5CFCE010E9436
:10045000E001F1CF8B8DFE01E80FF11DE35AFF4F54
:10046000F0820B8FEA89FB898081806207C0EE8968
:10047000FF896083E889F98980818064808381E0D5
:1004800090E0DF91CF911F910F91FF90EF90089531
:10049000CF93DF93EC01888D8823C9F0EA89FB892B
:1004A000808185FD05C0A889B9898C9186FD0FC022
:1004B0000FB607FCF5CF808185FFF2CFA889B989F7
:1004C0008C9185FFEDCFCE010E94E001E7CFDF9157
:1004D000CF91089580E090E0892B21F00E94D60111
:1004E000811125C080E090E0892B41F080E090E010
:1004F000892B21F00E94000081111CC080E090E057
:10050000892B41F080E090E0892B21F00E940000CF
:10051000811113C080E090E0892BA1F080E090E091
:10052000892B81F00E94000081110AC008950E9469
:100530000000D8CF0E940000E1CF0E940000EACF67
:100540000C9400000895009769F0FC0101900020D0
:10055000E9F73197AF01481B590BBC018FEA92E0D4
:100560000C946E0180E090E008958F929F92AF927C
:10057000BF920F931F93CF93DF93CDB7DEB7A197B1
:100580000FB6F894DEBF0FBECDBF19A2423008F4FB
:100590004AE08E010F5D1F4F842E912CA12CB12CAF
:1005A000A50194010E940E0AE62FB901CA0101506B
:1005B0001109EA3014F4E05D01C0E95CD801EC9364
:1005C000232B242B252B61F7C8010E94A302A1969F
:1005D0000FB6F894DEBF0FBECDBFDF91CF911F9154
:1005E0000F91BF90AF909F908F900895CF93DF931E
:1005F0000E94A302EC018AE292E00E94A3028C0F07
:100600009D1FDF91CF910895CF93DF93EC014AE0D6
:1006100060E070E0CB010E94B502E091AF02F09182
:10062000B0020190F081E02D6EE28FEA92E0199520
:100630004AE060E070E0CB010E94B5024AE060E071
:1006400070E0CB010E94B5028AE292E00E94A30210
:10065000EEADFFAD8381948120E030E040E050E0DA
:100660006081CD960E942B070EACDFADC02D8B8133
:100670009C8120E030E040E050E06981CD960E940E
:100680002B078B819C8120E030E040E050E06A81C4
:10069000CD960E942B078DE292E0DF91CF910C94D2
:1006A000F602382F2091AE029091AD02213208F06F
:1006B00049C080918A028111FCCF42E040938A02B6
:1006C000309389023FEF3093880210928702209383
:1006D0008602ADE8B2E046E652E0FA013E2F341B56
:1006E000321718F43D913193F9CF109265022091A1
:1006F0006502990F922B909365029091640291305C
:1007000061F410926402909165029093BB00909105
:10071000BC0093FDF8CF95EC01C095EE9093BC0022
:1007200090918A029230E1F3909188029F3F79F094
:1007300080918802803241F080918802803331F0CC
:1007400084E005C081E003C082E001C083E0109234
:100750008C021092AE0210928B020895682F8CE4E6
:1007600093E00C94870590E0FC01E25DFD4F44911D
:10077000FC01E851FE4F2491FC01EE55FE4F94918F
:10078000992309F466C0442309F455C050E0FA01E6
:100790003197E231F10508F04EC08827EE58FF4F3F
:1007A0008F4F0C94300A809180008F7707C0809122
:1007B00080008F7D03C080918000877F80938000C0
:1007C0003AC084B58F7702C084B58F7D84BD33C0B5
:1007D0008091B0008F7703C08091B0008F7D8093AF
:1007E000B00029C0809190008F7707C08091900061
:1007F0008F7D03C080919000877F809390001BC005
:100800008091A0008F7707C08091A0008F7D03C0EA
:100810008091A000877F8093A0000DC0809120016F
:100820008F7707C0809120018F7D03C080912001C8
:10083000877F80932001E92FF0E0EE0FFF1FE8573C
:10084000FE4FA591B4918FB7F894EC912E2B2C9379
:100850008FBF08953FB7F894809165039091660328
:10086000A0916703B091680326B5A89B05C02F3FF0
:1008700019F00196A11DB11D3FBFBA2FA92F982FC6
:100880008827820F911DA11DB11DBC01CD0142E041
:10089000660F771F881F991F4A95D1F708951F92F9
:1008A0000F920FB60F9211242F933F938F939F9324
:1008B000AF93BF938091610390916203A091630312
:1008C000B09164033091600323E0230F2D3720F4AF
:1008D0000196A11DB11D05C026E8230F0296A11D9A
:1008E000B11D209360038093610390936203A093F2
:1008F0006303B09364038091650390916603A091B4
:100900006703B09168030196A11DB11D8093650333
:1009100090936603A0936703B0936803BF91AF9170
:100920009F918F913F912F910F900FBE0F901F902D
:1009300018951F920F920FB60F9211240BB60F92BB
:100940002F933F934F935F936F937F938F939F93D7
:10095000AF93BF93EF93FF938FEA92E00E94E00181
:10096000FF91EF91BF91AF919F918F917F916F9187
:100970005F914F913F912F910F900BBE0F900FBE43
:100980000F901F9018951F920F920FB60F9211247F
:100990000BB60F922F938F939F93EF93FF93E0915A
:1009A000BF02F091C0028081E091C502F091C602C1
:1009B00082FD12C090818091C8028F5F8F73209159
:1009C000C902821751F0E091C802F0E0E155FD4FF5
:1009D000958F8093C80201C08081FF91EF919F9114
:1009E0008F912F910F900BBE0F900FBE0F901F9005
:1009F000189585ED8093BC008091BC0084FDFCCFF0
:100A000010928A0208954091AD03262F30E0240F02
:100A1000311D21323105DCF420918A022430C9F4E1
:100A2000FC0180E090E0861758F43091AD032191ED
:100A3000DC01A557BC4FA30FB11D2C930196F3CF3A
:100A40008091AD03680F6093AD0380E0089581E06D
:100A5000089582E008950895E0918A0380918903C2
:100A6000E81730F4F0E0E759FC4F808190E00895FA
:100A70008FEF9FEF089590918A03809189039817D3
:100A800050F4E92FF0E0E759FC4F208130E09F5F00
:100A900090938A0302C02FEF3FEFC9010895809120
:100AA000890390E020918A03821B91090895CF92D7
:100AB000DF92EF92FF920F931F93CF93DF937C010E
:100AC000262F972F8A0180918B02882391F0C62FC1
:100AD000D72F6E01C40ED51ECC15DD0571F06991BE
:100AE000D701ED91FC910190F081E02DC70119959E
:100AF000F3CF642F822F0E940305C801DF91CF91AD
:100B00001F910F91FF90EF90DF90CF900895CF93BA
:100B1000DF931F92CDB7DEB7698320918B0222232A
:100B2000D1F02091AE02203240F021E030E0FC0113
:100B30003383228380E090E015C080918C02E82FFF
:100B4000F0E0E357FD4F998190838F5F80938C0293
:100B50008093AE0205C061E0CE0101960E940305BC
:100B600081E090E00F90DF91CF910895089580E0AB
:100B700090E008950E94650B10928A0281E08093B4
:100B800089021092640284E10E94B30385E10E940D
:100B9000B303E9EBF0E080818E7F808380818D7FDD
:100BA000808388E48093B80085E48093BC00089536
:100BB000CF93DF931F92CDB7DEB7FC01808191E028
:100BC00090938B028093AD0210928C021092AE0231
:100BD0008CE493E049830E9487054981642F8CE46B
:100BE00093E00E94870581E00F90DF91CF910C94F4
:100BF00051031F920F920FB60F9211240BB60F9252
:100C00002F933F934F935F936F937F938F939F9314
:100C1000AF93BF93EF93FF938091B900887F8036A5
:100C200009F49CC068F5883209F45BC090F4803107
:100C300009F454C038F4882309F4F6C0883009F464
:100C40004DC0F6C0883109F44CC0803209F45DC053
:100C5000EFC0803409F468C048F4803309F455C00B
:100C6000883309F0E5C080938802D8C0803509F444
:100C70004FC0883509F45DC0883409F0D9C0D6C0AA
:100C8000883909F4C7C0A8F4883709F467C038F474
:100C9000883609F463C0803709F460C0C9C0883859
:100CA00009F4B8C0803909F45FC0803809F0C0C0C9
:100CB0005BC0803B09F486C038F4803A09F466C012
:100CC000883A09F47FC0B4C0803C09F4A7C0883CCE
:100CD00009F4A4C0883B09F48AC0AAC080916502C7
:100CE00010C09091870280918602981770F5E0916C
:100CF000870281E08E0F80938702F0E0EA59FD4F72
:100D000080818093BB0085EC86C0809388028EC072
:100D1000E091870281E08E0F809387028091BB0073
:100D2000F0E0EA59FD4F808390918702809186021E
:100D30006EC0E091870281E08E0F809387028091E0
:100D4000BB00F0E0EA59FD4F808380918902811158
:100D50006DC081E08093640284EA61C083E0809387
:100D60008A021092D103CFCF8091D103803208F054
:100D700051C0E091D10381E08E0F8093D103809127
:100D8000BB00F0E0EF54FC4F8083BDCF85EC809337
:100D9000BC0010928A028091D103803230F4E0913D
:100DA000D103F0E0EF54FC4F10826091D10370E06A
:100DB000E091AF03F091B00381EB93E019951092AD
:100DC000D10336C084E080938A021092AE03109261
:100DD000AD03E091AB03F091AC0319958091AD03A5
:100DE000811105C081E08093AD0310928B03E091E7
:100DF000AE0381E08E0F8093AE03F0E0E557FC4F29
:100E000080818093BB009091AE038091AD039817D1
:100E100008F479CF85E88093BC000AC085EC809304
:100E2000BC0010928A0204C0109288020E94F90449
:100E3000FF91EF91BF91AF919F918F917F916F91B2
:100E40005F914F913F912F910F900BBE0F900FBE6E
:100E50000F901F9018950F931F93CF93DF931F92BE
:100E60001F92CDB7DEB7152F032FFC01808191E0D3
:100E700090938B028093AD0210928C021092AE027E
:100E8000F4E06F9FB00111246A5F7F4F8CE493E020
:100E90002A8349830E9487054981842F912F0E94CC
:100EA000AE03812F90E00E94AE032A81822F902F03
:100EB0000E94AE03802F90E00E94AE0381E00F906D
:100EC0000F90DF91CF911F910F910C9451032F92AE
:100ED0003F924F925F926F927F928F929F92AF92CA
:100EE000BF92DF92EF92FF920F931F93CF93DF9306
:100EF000EC018B011C0125E0220E311CA101DC015B
:100F00001A964D96FA01148213821C929D01235069
:100F10003109F901108221503109F9011082FA01D9
:100F200010824A5F5F4F16964817590759F719A65E
:100F30001CA618A61FA219AE1CAE18AE1FAA80E6EA
:100F40008A838DAF8CE493E09983888310928A031F
:100F50001092890310928C021092AE020E94BC057E
:100F60007E01FDE3EF0EF11C10928C021092AE0296
:100F70000E94BC0540E060E0C7010E94D80580E403
:100F800096E09C838B838DAD91E090938B02809350
:100F9000AD0210928C021092AE0260E08CE493E0FD
:100FA0000E94870581E00E9451038DAD90918A02D5
:100FB0009111FCCF91E090938A02909389022FEFD8
:100FC0002093880210928702109286029093650205
:100FD00090916502880F892B80936502809164024D
:100FE000813061F410926402809165028093BB00AD
:100FF0008091BC0083FDF8CF85EC01C085EE809325
:10100000BC0080918A028130E1F3809187028111D6
:1010100003C08091870201C081E0A6E6B2E029E624
:1010200033E0F9019E2F921B981718F49D9191932C
:10103000F9CF10928A03809389038CE493E00E9495
:101040003B05D82E482F4F76406160E0C7010E94D3
:10105000D80543E06EEFC7010E94D8054D2D60E032
:10106000C7010E94D8050E942A044B015C0185E05B
:10107000482E512C612C712C0E942A04DC01CB01DA
:1010800088199909AA09BB09883E9340A105B105B1
:1010900058F021E0421A51086108710888EE880E64
:1010A00083E0981EA11CB11C411451046104710419
:1010B00019F74D2D416A60E0C7010E94D805D12C77
:1010C00020E030E040E050E06D2DC7010E942B078A
:1010D000D394F0E1DF12F4CF8BE492E00E94F602A9
:1010E000C8010197049708F045C00150402F50E017
:1010F000FE0126E0029FE00DF11D11248285811181
:101100002DC00287D187C087002341F0013051F004
:10111000023061F086E095E027E00BC089E09AE0BC
:1011200028E007C08CE09BE02DE003C083E094E062
:1011300022E036E0349FF001359FF00D1124EC0FD2
:10114000FD1F2583BA016F5F7F4F369FD001379F08
:10115000B00D1124AC0FBD1F9C93878326E0249F04
:10116000C001259F900D112405968C0F9D1F9FAFE8
:101170008EAF0EC08A85811109C01A86D987C887AB
:1011800088E08D838AE08E8389E08F833FAE2EAE28
:1011900088E592E0DF91CF911F910F91FF90EF9042
:1011A000DF90BF90AF909F908F907F906F905F90F7
:1011B0004F903F902F900C94F602EFEAF2E01382EA
:1011C000128288EE93E0A0E0B0E084839583A6834A
:1011D000B7832AE032E03183208325EC30E0358785
:1011E000248724EC30E03787268720EC30E0318BF1
:1011F000208B21EC30E0338B228B22EC30E0358BDE
:10120000248B26EC30E0378B268B118E128E138EBA
:10121000148EECE4F3E01382128284839583A68318
:10122000B7838CE192E0918380830895789484B5AC
:10123000826084BD84B5816084BD85B5826085BDD2
:1012400085B5816085BD80916E00816080936E0060
:101250001092810080918100826080938100809152
:101260008100816080938100809180008160809303
:1012700080008091B10084608093B1008091B000C3
:1012800081608093B0008091910082608093910092
:1012900080919100816080939100809190008160A5
:1012A000809390008091A10082608093A100809142
:1012B000A10081608093A1008091A0008160809353
:1012C000A000809121018260809321018091210101
:1012D00081608093210180912001816080932001B1
:1012E00080917A00846080937A0080917A00826095
:1012F00080937A0080917A00816080937A00809157
:101300007A00806880937A001092C100E091BF0259
:10131000F091C00282E08083E091BB02F091BC02B8
:101320001082E091BD02F091BE028FEC808310929A
:10133000C702E091C302F091C40286E08083E0918D
:10134000C102F091C202808180618083E091C1027C
:10135000F091C202808188608083E091C102F091A7
:10136000C202808180688083E091C102F091C20254
:1013700080818F7D80838EE392E00E94F60280E47C
:1013800090E00E94380AEC0162E070E00E9467077A
:10139000D0935D03C0935C0380E490E00E94380A20
:1013A000EC0161E070E00E946707D0935F03C09397
:1013B0005E0380E490E00E94380AEC0164E070E093
:1013C0000E946707D0935903C093580380E490E0CC
:1013D0000E94380AEC0163E070E00E946707D09336
:1013E0005B03C0935A0380915E0390915F030E9458
:1013F000040380915C0390915D030E94040380913B
:101400005A0390915B030E940403809158039091CA
:1014100059030E9404030E946A02E5CFA1E21A2E3A
:10142000AA1BBB1BFD010DC0AA1FBB1FEE1FFF1F88
:10143000A217B307E407F50720F0A21BB30BE40BD8
:10144000F50B661F771F881F991F1A9469F760951F
:101450007095809590959B01AC01BD01CF010895D9
:10146000EE0FFF1F881F8BBF0790F691E02D199498
:10147000CF93DF938230910510F482E090E0E09109
:10148000D403F091D50320E030E0C0E0D0E0309705
:1014900011F14081518148175907C0F04817590789
:1014A00061F482819381209719F09B838A832BC0FA
:1014B0009093D5038093D40326C02115310519F0EC
:1014C0004217530718F49A01BE01DF01EF010280B1
:1014D000F381E02DDCCF2115310509F1281B390BF3
:1014E0002430310590F412968D919C9113976115DB
:1014F000710521F0FB019383828304C09093D5038F
:101500008093D403FD01329644C0FD01E20FF31F26
:1015100081939193225031092D933C933AC02091AD
:10152000D2033091D303232B41F420910202309156
:1015300003023093D3032093D20320910002309111
:1015400001022115310541F42DB73EB74091040247
:1015500050910502241B350BE091D203F091D30387
:10156000E217F307A0F42E1B3F0B2817390778F07A
:10157000AC014E5F5F4F2417350748F04E0F5F1FD9
:101580005093D3034093D2038193919302C0E0E040
:10159000F0E0CF01DF91CF9108950F931F93CF9388
:1015A000DF93009709F48CC0FC01329713821282FA
:1015B0000091D4031091D5030115110581F4208108
:1015C0003181820F931F2091D2033091D3032817CA
:1015D000390779F5F093D303E093D20371C0D801B2
:1015E00040E050E0AE17BF0750F412962D913C91A9
:1015F0001397AD012115310509F1D901F3CF9D01F3
:10160000DA013383228360817181860F971F8217ED
:10161000930769F4EC0128813981260F371F2E5F6B
:101620003F4F318320838A819B8193838283452B23
:1016300029F4F093D503E093D40342C01396FC93AE
:10164000EE931297ED01499159919E01240F351F98
:10165000E217F30771F480819181840F951F029640
:1016600011969C938E938281938113969C938E9373
:101670001297E0E0F0E0D80112968D919C911397BB
:10168000009719F0F8018C01F6CF8D919C9198018B
:101690002E5F3F4F820F931F2091D2033091D303CF
:1016A0002817390769F4309729F41092D50310925E
:1016B000D40302C0138212821093D3030093D20387
:1016C000DF91CF911F910F91089581E090E0F89400
:0816D0000C946A0BF894FFCFA3
:1016D8000000D60380000000000001026E0199019D
:1016E8004802CA01A801BC0100000000870557058F
:1016F800B7052B054F053B052C050D0A0052454C37
:1017080045415345204F4620444541544800494EE1
:1017180049434941522050524F4700414E54455386
:101728002044452045534F004445535055455320C8
:041738004445000024
:00000001FF
